{
  "_format": "hh-sol-artifact-1",
  "contractName": "safeNFT",
  "sourceName": "contracts/safenft.sol",
  "abi": [
    {
      "inputs": [
        {
          "internalType": "string",
          "name": "tokenName",
          "type": "string"
        },
        {
          "internalType": "string",
          "name": "tokenSymbol",
          "type": "string"
        },
        {
          "internalType": "uint256",
          "name": "_price",
          "type": "uint256"
        }
      ],
      "stateMutability": "nonpayable",
      "type": "constructor"
    },
    {
      "anonymous": false,
      "inputs": [
        {
          "indexed": true,
          "internalType": "address",
          "name": "owner",
          "type": "address"
        },
        {
          "indexed": true,
          "internalType": "address",
          "name": "approved",
          "type": "address"
        },
        {
          "indexed": true,
          "internalType": "uint256",
          "name": "tokenId",
          "type": "uint256"
        }
      ],
      "name": "Approval",
      "type": "event"
    },
    {
      "anonymous": false,
      "inputs": [
        {
          "indexed": true,
          "internalType": "address",
          "name": "owner",
          "type": "address"
        },
        {
          "indexed": true,
          "internalType": "address",
          "name": "operator",
          "type": "address"
        },
        {
          "indexed": false,
          "internalType": "bool",
          "name": "approved",
          "type": "bool"
        }
      ],
      "name": "ApprovalForAll",
      "type": "event"
    },
    {
      "anonymous": false,
      "inputs": [
        {
          "indexed": true,
          "internalType": "address",
          "name": "from",
          "type": "address"
        },
        {
          "indexed": true,
          "internalType": "address",
          "name": "to",
          "type": "address"
        },
        {
          "indexed": true,
          "internalType": "uint256",
          "name": "tokenId",
          "type": "uint256"
        }
      ],
      "name": "Transfer",
      "type": "event"
    },
    {
      "inputs": [
        {
          "internalType": "address",
          "name": "to",
          "type": "address"
        },
        {
          "internalType": "uint256",
          "name": "tokenId",
          "type": "uint256"
        }
      ],
      "name": "approve",
      "outputs": [],
      "stateMutability": "nonpayable",
      "type": "function"
    },
    {
      "inputs": [
        {
          "internalType": "address",
          "name": "owner",
          "type": "address"
        }
      ],
      "name": "balanceOf",
      "outputs": [
        {
          "internalType": "uint256",
          "name": "",
          "type": "uint256"
        }
      ],
      "stateMutability": "view",
      "type": "function"
    },
    {
      "inputs": [],
      "name": "buyNFT",
      "outputs": [],
      "stateMutability": "payable",
      "type": "function"
    },
    {
      "inputs": [
        {
          "internalType": "address",
          "name": "",
          "type": "address"
        }
      ],
      "name": "canClaim",
      "outputs": [
        {
          "internalType": "bool",
          "name": "",
          "type": "bool"
        }
      ],
      "stateMutability": "view",
      "type": "function"
    },
    {
      "inputs": [],
      "name": "claim",
      "outputs": [],
      "stateMutability": "nonpayable",
      "type": "function"
    },
    {
      "inputs": [
        {
          "internalType": "uint256",
          "name": "tokenId",
          "type": "uint256"
        }
      ],
      "name": "getApproved",
      "outputs": [
        {
          "internalType": "address",
          "name": "",
          "type": "address"
        }
      ],
      "stateMutability": "view",
      "type": "function"
    },
    {
      "inputs": [
        {
          "internalType": "address",
          "name": "owner",
          "type": "address"
        },
        {
          "internalType": "address",
          "name": "operator",
          "type": "address"
        }
      ],
      "name": "isApprovedForAll",
      "outputs": [
        {
          "internalType": "bool",
          "name": "",
          "type": "bool"
        }
      ],
      "stateMutability": "view",
      "type": "function"
    },
    {
      "inputs": [],
      "name": "name",
      "outputs": [
        {
          "internalType": "string",
          "name": "",
          "type": "string"
        }
      ],
      "stateMutability": "view",
      "type": "function"
    },
    {
      "inputs": [
        {
          "internalType": "uint256",
          "name": "tokenId",
          "type": "uint256"
        }
      ],
      "name": "ownerOf",
      "outputs": [
        {
          "internalType": "address",
          "name": "",
          "type": "address"
        }
      ],
      "stateMutability": "view",
      "type": "function"
    },
    {
      "inputs": [
        {
          "internalType": "address",
          "name": "from",
          "type": "address"
        },
        {
          "internalType": "address",
          "name": "to",
          "type": "address"
        },
        {
          "internalType": "uint256",
          "name": "tokenId",
          "type": "uint256"
        }
      ],
      "name": "safeTransferFrom",
      "outputs": [],
      "stateMutability": "nonpayable",
      "type": "function"
    },
    {
      "inputs": [
        {
          "internalType": "address",
          "name": "from",
          "type": "address"
        },
        {
          "internalType": "address",
          "name": "to",
          "type": "address"
        },
        {
          "internalType": "uint256",
          "name": "tokenId",
          "type": "uint256"
        },
        {
          "internalType": "bytes",
          "name": "data",
          "type": "bytes"
        }
      ],
      "name": "safeTransferFrom",
      "outputs": [],
      "stateMutability": "nonpayable",
      "type": "function"
    },
    {
      "inputs": [
        {
          "internalType": "address",
          "name": "operator",
          "type": "address"
        },
        {
          "internalType": "bool",
          "name": "approved",
          "type": "bool"
        }
      ],
      "name": "setApprovalForAll",
      "outputs": [],
      "stateMutability": "nonpayable",
      "type": "function"
    },
    {
      "inputs": [
        {
          "internalType": "bytes4",
          "name": "interfaceId",
          "type": "bytes4"
        }
      ],
      "name": "supportsInterface",
      "outputs": [
        {
          "internalType": "bool",
          "name": "",
          "type": "bool"
        }
      ],
      "stateMutability": "view",
      "type": "function"
    },
    {
      "inputs": [],
      "name": "symbol",
      "outputs": [
        {
          "internalType": "string",
          "name": "",
          "type": "string"
        }
      ],
      "stateMutability": "view",
      "type": "function"
    },
    {
      "inputs": [
        {
          "internalType": "uint256",
          "name": "index",
          "type": "uint256"
        }
      ],
      "name": "tokenByIndex",
      "outputs": [
        {
          "internalType": "uint256",
          "name": "",
          "type": "uint256"
        }
      ],
      "stateMutability": "view",
      "type": "function"
    },
    {
      "inputs": [
        {
          "internalType": "address",
          "name": "owner",
          "type": "address"
        },
        {
          "internalType": "uint256",
          "name": "index",
          "type": "uint256"
        }
      ],
      "name": "tokenOfOwnerByIndex",
      "outputs": [
        {
          "internalType": "uint256",
          "name": "",
          "type": "uint256"
        }
      ],
      "stateMutability": "view",
      "type": "function"
    },
    {
      "inputs": [
        {
          "internalType": "uint256",
          "name": "tokenId",
          "type": "uint256"
        }
      ],
      "name": "tokenURI",
      "outputs": [
        {
          "internalType": "string",
          "name": "",
          "type": "string"
        }
      ],
      "stateMutability": "view",
      "type": "function"
    },
    {
      "inputs": [],
      "name": "totalSupply",
      "outputs": [
        {
          "internalType": "uint256",
          "name": "",
          "type": "uint256"
        }
      ],
      "stateMutability": "view",
      "type": "function"
    },
    {
      "inputs": [
        {
          "internalType": "address",
          "name": "from",
          "type": "address"
        },
        {
          "internalType": "address",
          "name": "to",
          "type": "address"
        },
        {
          "internalType": "uint256",
          "name": "tokenId",
          "type": "uint256"
        }
      ],
      "name": "transferFrom",
      "outputs": [],
      "stateMutability": "nonpayable",
      "type": "function"
    }
  ],
  "bytecode": "0x60806040523480156200001157600080fd5b506040516200373a3803806200373a8339818101604052810190620000379190620001c2565b82828160009080519060200190620000519291906200007d565b5080600190805190602001906200006a9291906200007d565b50505080600a8190555050505062000404565b8280546200008b90620002fb565b90600052602060002090601f016020900481019282620000af5760008555620000fb565b82601f10620000ca57805160ff1916838001178555620000fb565b82800160010185558215620000fb579182015b82811115620000fa578251825591602001919060010190620000dd565b5b5090506200010a91906200010e565b5090565b5b80821115620001295760008160009055506001016200010f565b5090565b6000620001446200013e8462000285565b6200025c565b905082815260208101848484011115620001635762000162620003ca565b5b62000170848285620002c5565b509392505050565b600082601f83011262000190576200018f620003c5565b5b8151620001a28482602086016200012d565b91505092915050565b600081519050620001bc81620003ea565b92915050565b600080600060608486031215620001de57620001dd620003d4565b5b600084015167ffffffffffffffff811115620001ff57620001fe620003cf565b5b6200020d8682870162000178565b935050602084015167ffffffffffffffff811115620002315762000230620003cf565b5b6200023f8682870162000178565b92505060406200025286828701620001ab565b9150509250925092565b6000620002686200027b565b905062000276828262000331565b919050565b6000604051905090565b600067ffffffffffffffff821115620002a357620002a262000396565b5b620002ae82620003d9565b9050602081019050919050565b6000819050919050565b60005b83811015620002e5578082015181840152602081019050620002c8565b83811115620002f5576000848401525b50505050565b600060028204905060018216806200031457607f821691505b602082108114156200032b576200032a62000367565b5b50919050565b6200033c82620003d9565b810181811067ffffffffffffffff821117156200035e576200035d62000396565b5b80604052505050565b7f4e487b7100000000000000000000000000000000000000000000000000000000600052602260045260246000fd5b7f4e487b7100000000000000000000000000000000000000000000000000000000600052604160045260246000fd5b600080fd5b600080fd5b600080fd5b600080fd5b6000601f19601f8301169050919050565b620003f581620002bb565b81146200040157600080fd5b50565b61332680620004146000396000f3fe6080604052600436106101145760003560e01c80634f6ccce7116100a0578063b88d4fde11610064578063b88d4fde146103c3578063bf3506c1146103ec578063bff29cee14610429578063c87b56dd14610433578063e985e9c51461047057610114565b80634f6ccce7146102b85780636352211e146102f557806370a082311461033257806395d89b411461036f578063a22cb4651461039a57610114565b806318160ddd116100e757806318160ddd146101e757806323b872dd146102125780632f745c591461023b57806342842e0e146102785780634e71d92d146102a157610114565b806301ffc9a71461011957806306fdde0314610156578063081812fc14610181578063095ea7b3146101be575b600080fd5b34801561012557600080fd5b50610140600480360381019061013b91906124a3565b6104ad565b60405161014d91906128b5565b60405180910390f35b34801561016257600080fd5b5061016b610527565b60405161017891906128d0565b60405180910390f35b34801561018d57600080fd5b506101a860048036038101906101a391906124fd565b6105b9565b6040516101b5919061284e565b60405180910390f35b3480156101ca57600080fd5b506101e560048036038101906101e09190612463565b6105ff565b005b3480156101f357600080fd5b506101fc610717565b6040516102099190612af2565b60405180910390f35b34801561021e57600080fd5b506102396004803603810190610234919061234d565b610724565b005b34801561024757600080fd5b50610262600480360381019061025d9190612463565b610784565b60405161026f9190612af2565b60405180910390f35b34801561028457600080fd5b5061029f600480360381019061029a919061234d565b610829565b005b3480156102ad57600080fd5b506102b6610849565b005b3480156102c457600080fd5b506102df60048036038101906102da91906124fd565b610940565b6040516102ec9190612af2565b60405180910390f35b34801561030157600080fd5b5061031c600480360381019061031791906124fd565b6109b1565b604051610329919061284e565b60405180910390f35b34801561033e57600080fd5b50610359600480360381019061035491906122e0565b610a38565b6040516103669190612af2565b60405180910390f35b34801561037b57600080fd5b50610384610af0565b60405161039191906128d0565b60405180910390f35b3480156103a657600080fd5b506103c160048036038101906103bc9190612423565b610b82565b005b3480156103cf57600080fd5b506103ea60048036038101906103e591906123a0565b610b98565b005b3480156103f857600080fd5b50610413600480360381019061040e91906122e0565b610bfa565b60405161042091906128b5565b60405180910390f35b610431610c1a565b005b34801561043f57600080fd5b5061045a600480360381019061045591906124fd565b610cb8565b60405161046791906128d0565b60405180910390f35b34801561047c57600080fd5b506104976004803603810190610492919061230d565b610d20565b6040516104a491906128b5565b60405180910390f35b60007f780e9d63000000000000000000000000000000000000000000000000000000007bffffffffffffffffffffffffffffffffffffffffffffffffffffffff1916827bffffffffffffffffffffffffffffffffffffffffffffffffffffffff19161480610520575061051f82610db4565b5b9050919050565b60606000805461053690612ce6565b80601f016020809104026020016040519081016040528092919081815260200182805461056290612ce6565b80156105af5780601f10610584576101008083540402835291602001916105af565b820191906000526020600020905b81548152906001019060200180831161059257829003601f168201915b5050505050905090565b60006105c482610e96565b6004600083815260200190815260200160002060009054906101000a900473ffffffffffffffffffffffffffffffffffffffff169050919050565b600061060a826109b1565b90508073ffffffffffffffffffffffffffffffffffffffff168373ffffffffffffffffffffffffffffffffffffffff16141561067b576040517f08c379a000000000000000000000000000000000000000000000000000000000815260040161067290612a52565b60405180910390fd5b8073ffffffffffffffffffffffffffffffffffffffff1661069a610ee1565b73ffffffffffffffffffffffffffffffffffffffff1614806106c957506106c8816106c3610ee1565b610d20565b5b610708576040517f08c379a00000000000000000000000000000000000000000000000000000000081526004016106ff90612a72565b60405180910390fd5b6107128383610ee9565b505050565b6000600880549050905090565b61073561072f610ee1565b82610fa2565b610774576040517f08c379a000000000000000000000000000000000000000000000000000000000815260040161076b906128f2565b60405180910390fd5b61077f838383611037565b505050565b600061078f83610a38565b82106107d0576040517f08c379a00000000000000000000000000000000000000000000000000000000081526004016107c790612912565b60405180910390fd5b600660008473ffffffffffffffffffffffffffffffffffffffff1673ffffffffffffffffffffffffffffffffffffffff168152602001908152602001600020600083815260200190815260200160002054905092915050565b61084483838360405180602001604052806000815250610b98565b505050565b600b60003373ffffffffffffffffffffffffffffffffffffffff1673ffffffffffffffffffffffffffffffffffffffff16815260200190815260200160002060009054906101000a900460ff166108d5576040517f08c379a00000000000000000000000000000000000000000000000000000000081526004016108cc90612a12565b60405180910390fd5b6108e6336108e1610717565b611331565b6000600b60003373ffffffffffffffffffffffffffffffffffffffff1673ffffffffffffffffffffffffffffffffffffffff16815260200190815260200160002060006101000a81548160ff021916908315150217905550565b600061094a610717565b821061098b576040517f08c379a000000000000000000000000000000000000000000000000000000000815260040161098290612a92565b60405180910390fd5b6008828154811061099f5761099e612e05565b5b90600052602060002001549050919050565b6000806109bd8361134f565b9050600073ffffffffffffffffffffffffffffffffffffffff168173ffffffffffffffffffffffffffffffffffffffff161415610a2f576040517f08c379a0000000000000000000000000000000000000000000000000000000008152600401610a2690612a32565b60405180910390fd5b80915050919050565b60008073ffffffffffffffffffffffffffffffffffffffff168273ffffffffffffffffffffffffffffffffffffffff161415610aa9576040517f08c379a0000000000000000000000000000000000000000000000000000000008152600401610aa0906129d2565b60405180910390fd5b600360008373ffffffffffffffffffffffffffffffffffffffff1673ffffffffffffffffffffffffffffffffffffffff168152602001908152602001600020549050919050565b606060018054610aff90612ce6565b80601f0160208091040260200160405190810160405280929190818152602001828054610b2b90612ce6565b8015610b785780601f10610b4d57610100808354040283529160200191610b78565b820191906000526020600020905b815481529060010190602001808311610b5b57829003601f168201915b5050505050905090565b610b94610b8d610ee1565b838361138c565b5050565b610ba9610ba3610ee1565b83610fa2565b610be8576040517f08c379a0000000000000000000000000000000000000000000000000000000008152600401610bdf906128f2565b60405180910390fd5b610bf4848484846114f9565b50505050565b600b6020528060005260406000206000915054906101000a900460ff1681565b34600a5414610c5e576040517f08c379a0000000000000000000000000000000000000000000000000000000008152600401610c5590612ad2565b60405180910390fd5b6001600b60003373ffffffffffffffffffffffffffffffffffffffff1673ffffffffffffffffffffffffffffffffffffffff16815260200190815260200160002060006101000a81548160ff021916908315150217905550565b6060610cc382610e96565b6000610ccd611555565b90506000815111610ced5760405180602001604052806000815250610d18565b80610cf78461156c565b604051602001610d0892919061282a565b6040516020818303038152906040525b915050919050565b6000600560008473ffffffffffffffffffffffffffffffffffffffff1673ffffffffffffffffffffffffffffffffffffffff16815260200190815260200160002060008373ffffffffffffffffffffffffffffffffffffffff1673ffffffffffffffffffffffffffffffffffffffff16815260200190815260200160002060009054906101000a900460ff16905092915050565b60007f80ac58cd000000000000000000000000000000000000000000000000000000007bffffffffffffffffffffffffffffffffffffffffffffffffffffffff1916827bffffffffffffffffffffffffffffffffffffffffffffffffffffffff19161480610e7f57507f5b5e139f000000000000000000000000000000000000000000000000000000007bffffffffffffffffffffffffffffffffffffffffffffffffffffffff1916827bffffffffffffffffffffffffffffffffffffffffffffffffffffffff1916145b80610e8f5750610e8e82611644565b5b9050919050565b610e9f816116ae565b610ede576040517f08c379a0000000000000000000000000000000000000000000000000000000008152600401610ed590612a32565b60405180910390fd5b50565b600033905090565b816004600083815260200190815260200160002060006101000a81548173ffffffffffffffffffffffffffffffffffffffff021916908373ffffffffffffffffffffffffffffffffffffffff160217905550808273ffffffffffffffffffffffffffffffffffffffff16610f5c836109b1565b73ffffffffffffffffffffffffffffffffffffffff167f8c5be1e5ebec7d5bd14f71427d1e84f3dd0314c0f7b2291e5b200ac8c7c3b92560405160405180910390a45050565b600080610fae836109b1565b90508073ffffffffffffffffffffffffffffffffffffffff168473ffffffffffffffffffffffffffffffffffffffff161480610ff05750610fef8185610d20565b5b8061102e57508373ffffffffffffffffffffffffffffffffffffffff16611016846105b9565b73ffffffffffffffffffffffffffffffffffffffff16145b91505092915050565b8273ffffffffffffffffffffffffffffffffffffffff16611057826109b1565b73ffffffffffffffffffffffffffffffffffffffff16146110ad576040517f08c379a00000000000000000000000000000000000000000000000000000000081526004016110a490612952565b60405180910390fd5b600073ffffffffffffffffffffffffffffffffffffffff168273ffffffffffffffffffffffffffffffffffffffff16141561111d576040517f08c379a000000000000000000000000000000000000000000000000000000000815260040161111490612992565b60405180910390fd5b61112a83838360016116ef565b8273ffffffffffffffffffffffffffffffffffffffff1661114a826109b1565b73ffffffffffffffffffffffffffffffffffffffff16146111a0576040517f08c379a000000000000000000000000000000000000000000000000000000000815260040161119790612952565b60405180910390fd5b6004600082815260200190815260200160002060006101000a81549073ffffffffffffffffffffffffffffffffffffffff02191690556001600360008573ffffffffffffffffffffffffffffffffffffffff1673ffffffffffffffffffffffffffffffffffffffff168152602001908152602001600020600082825403925050819055506001600360008473ffffffffffffffffffffffffffffffffffffffff1673ffffffffffffffffffffffffffffffffffffffff16815260200190815260200160002060008282540192505081905550816002600083815260200190815260200160002060006101000a81548173ffffffffffffffffffffffffffffffffffffffff021916908373ffffffffffffffffffffffffffffffffffffffff160217905550808273ffffffffffffffffffffffffffffffffffffffff168473ffffffffffffffffffffffffffffffffffffffff167fddf252ad1be2c89b69c2b068fc378daa952ba7f163c4a11628f55a4df523b3ef60405160405180910390a461132c838383600161184f565b505050565b61134b828260405180602001604052806000815250611855565b5050565b60006002600083815260200190815260200160002060009054906101000a900473ffffffffffffffffffffffffffffffffffffffff169050919050565b8173ffffffffffffffffffffffffffffffffffffffff168373ffffffffffffffffffffffffffffffffffffffff1614156113fb576040517f08c379a00000000000000000000000000000000000000000000000000000000081526004016113f2906129b2565b60405180910390fd5b80600560008573ffffffffffffffffffffffffffffffffffffffff1673ffffffffffffffffffffffffffffffffffffffff16815260200190815260200160002060008473ffffffffffffffffffffffffffffffffffffffff1673ffffffffffffffffffffffffffffffffffffffff16815260200190815260200160002060006101000a81548160ff0219169083151502179055508173ffffffffffffffffffffffffffffffffffffffff168373ffffffffffffffffffffffffffffffffffffffff167f17307eab39ab6107e8899845ad3d59bd9653f200f220920489ca2b5937696c31836040516114ec91906128b5565b60405180910390a3505050565b611504848484611037565b611510848484846118b0565b61154f576040517f08c379a000000000000000000000000000000000000000000000000000000000815260040161154690612932565b60405180910390fd5b50505050565b606060405180602001604052806000815250905090565b60606000600161157b84611a47565b01905060008167ffffffffffffffff81111561159a57611599612e34565b5b6040519080825280601f01601f1916602001820160405280156115cc5781602001600182028036833780820191505090505b509050600082602001820190505b600115611639578080600190039150507f3031323334353637383961626364656600000000000000000000000000000000600a86061a8153600a858161162357611622612d78565b5b049450600085141561163457611639565b6115da565b819350505050919050565b60007f01ffc9a7000000000000000000000000000000000000000000000000000000007bffffffffffffffffffffffffffffffffffffffffffffffffffffffff1916827bffffffffffffffffffffffffffffffffffffffffffffffffffffffff1916149050919050565b60008073ffffffffffffffffffffffffffffffffffffffff166116d08361134f565b73ffffffffffffffffffffffffffffffffffffffff1614159050919050565b6116fb84848484611b9a565b600181111561173f576040517f08c379a000000000000000000000000000000000000000000000000000000000815260040161173690612ab2565b60405180910390fd5b6000829050600073ffffffffffffffffffffffffffffffffffffffff168573ffffffffffffffffffffffffffffffffffffffff1614156117875761178281611cc0565b6117c6565b8373ffffffffffffffffffffffffffffffffffffffff168573ffffffffffffffffffffffffffffffffffffffff16146117c5576117c48582611d09565b5b5b600073ffffffffffffffffffffffffffffffffffffffff168473ffffffffffffffffffffffffffffffffffffffff1614156118095761180481611e76565b611848565b8473ffffffffffffffffffffffffffffffffffffffff168473ffffffffffffffffffffffffffffffffffffffff1614611847576118468482611f47565b5b5b5050505050565b50505050565b61185f8383611fc6565b61186c60008484846118b0565b6118ab576040517f08c379a00000000000000000000000000000000000000000000000000000000081526004016118a290612932565b60405180910390fd5b505050565b60006118d18473ffffffffffffffffffffffffffffffffffffffff166121e4565b15611a3a578373ffffffffffffffffffffffffffffffffffffffff1663150b7a026118fa610ee1565b8786866040518563ffffffff1660e01b815260040161191c9493929190612869565b602060405180830381600087803b15801561193657600080fd5b505af192505050801561196757506040513d601f19601f8201168201806040525081019061196491906124d0565b60015b6119ea573d8060008114611997576040519150601f19603f3d011682016040523d82523d6000602084013e61199c565b606091505b506000815114156119e2576040517f08c379a00000000000000000000000000000000000000000000000000000000081526004016119d990612932565b60405180910390fd5b805181602001fd5b63150b7a0260e01b7bffffffffffffffffffffffffffffffffffffffffffffffffffffffff1916817bffffffffffffffffffffffffffffffffffffffffffffffffffffffff191614915050611a3f565b600190505b949350505050565b600080600090507a184f03e93ff9f4daa797ed6e38ed64bf6a1f0100000000000000008310611aa5577a184f03e93ff9f4daa797ed6e38ed64bf6a1f0100000000000000008381611a9b57611a9a612d78565b5b0492506040810190505b6d04ee2d6d415b85acef81000000008310611ae2576d04ee2d6d415b85acef81000000008381611ad857611ad7612d78565b5b0492506020810190505b662386f26fc100008310611b1157662386f26fc100008381611b0757611b06612d78565b5b0492506010810190505b6305f5e1008310611b3a576305f5e1008381611b3057611b2f612d78565b5b0492506008810190505b6127108310611b5f576127108381611b5557611b54612d78565b5b0492506004810190505b60648310611b825760648381611b7857611b77612d78565b5b0492506002810190505b600a8310611b91576001810190505b80915050919050565b6001811115611cba57600073ffffffffffffffffffffffffffffffffffffffff168473ffffffffffffffffffffffffffffffffffffffff1614611c2e5780600360008673ffffffffffffffffffffffffffffffffffffffff1673ffffffffffffffffffffffffffffffffffffffff1681526020019081526020016000206000828254611c269190612bfc565b925050819055505b600073ffffffffffffffffffffffffffffffffffffffff168373ffffffffffffffffffffffffffffffffffffffff1614611cb95780600360008573ffffffffffffffffffffffffffffffffffffffff1673ffffffffffffffffffffffffffffffffffffffff1681526020019081526020016000206000828254611cb19190612ba6565b925050819055505b5b50505050565b6008805490506009600083815260200190815260200160002081905550600881908060018154018082558091505060019003906000526020600020016000909190919091505550565b60006001611d1684610a38565b611d209190612bfc565b9050600060076000848152602001908152602001600020549050818114611e05576000600660008673ffffffffffffffffffffffffffffffffffffffff1673ffffffffffffffffffffffffffffffffffffffff168152602001908152602001600020600084815260200190815260200160002054905080600660008773ffffffffffffffffffffffffffffffffffffffff1673ffffffffffffffffffffffffffffffffffffffff168152602001908152602001600020600084815260200190815260200160002081905550816007600083815260200190815260200160002081905550505b6007600084815260200190815260200160002060009055600660008573ffffffffffffffffffffffffffffffffffffffff1673ffffffffffffffffffffffffffffffffffffffff16815260200190815260200160002060008381526020019081526020016000206000905550505050565b60006001600880549050611e8a9190612bfc565b9050600060096000848152602001908152602001600020549050600060088381548110611eba57611eb9612e05565b5b906000526020600020015490508060088381548110611edc57611edb612e05565b5b906000526020600020018190555081600960008381526020019081526020016000208190555060096000858152602001908152602001600020600090556008805480611f2b57611f2a612dd6565b5b6001900381819060005260206000200160009055905550505050565b6000611f5283610a38565b905081600660008573ffffffffffffffffffffffffffffffffffffffff1673ffffffffffffffffffffffffffffffffffffffff168152602001908152602001600020600083815260200190815260200160002081905550806007600084815260200190815260200160002081905550505050565b600073ffffffffffffffffffffffffffffffffffffffff168273ffffffffffffffffffffffffffffffffffffffff161415612036576040517f08c379a000000000000000000000000000000000000000000000000000000000815260040161202d906129f2565b60405180910390fd5b61203f816116ae565b1561207f576040517f08c379a000000000000000000000000000000000000000000000000000000000815260040161207690612972565b60405180910390fd5b61208d6000838360016116ef565b612096816116ae565b156120d6576040517f08c379a00000000000000000000000000000000000000000000000000000000081526004016120cd90612972565b60405180910390fd5b6001600360008473ffffffffffffffffffffffffffffffffffffffff1673ffffffffffffffffffffffffffffffffffffffff16815260200190815260200160002060008282540192505081905550816002600083815260200190815260200160002060006101000a81548173ffffffffffffffffffffffffffffffffffffffff021916908373ffffffffffffffffffffffffffffffffffffffff160217905550808273ffffffffffffffffffffffffffffffffffffffff16600073ffffffffffffffffffffffffffffffffffffffff167fddf252ad1be2c89b69c2b068fc378daa952ba7f163c4a11628f55a4df523b3ef60405160405180910390a46121e060008383600161184f565b5050565b6000808273ffffffffffffffffffffffffffffffffffffffff163b119050919050565b600061221a61221584612b32565b612b0d565b90508281526020810184848401111561223657612235612e68565b5b612241848285612ca4565b509392505050565b60008135905061225881613294565b92915050565b60008135905061226d816132ab565b92915050565b600081359050612282816132c2565b92915050565b600081519050612297816132c2565b92915050565b600082601f8301126122b2576122b1612e63565b5b81356122c2848260208601612207565b91505092915050565b6000813590506122da816132d9565b92915050565b6000602082840312156122f6576122f5612e72565b5b600061230484828501612249565b91505092915050565b6000806040838503121561232457612323612e72565b5b600061233285828601612249565b925050602061234385828601612249565b9150509250929050565b60008060006060848603121561236657612365612e72565b5b600061237486828701612249565b935050602061238586828701612249565b9250506040612396868287016122cb565b9150509250925092565b600080600080608085870312156123ba576123b9612e72565b5b60006123c887828801612249565b94505060206123d987828801612249565b93505060406123ea878288016122cb565b925050606085013567ffffffffffffffff81111561240b5761240a612e6d565b5b6124178782880161229d565b91505092959194509250565b6000806040838503121561243a57612439612e72565b5b600061244885828601612249565b92505060206124598582860161225e565b9150509250929050565b6000806040838503121561247a57612479612e72565b5b600061248885828601612249565b9250506020612499858286016122cb565b9150509250929050565b6000602082840312156124b9576124b8612e72565b5b60006124c784828501612273565b91505092915050565b6000602082840312156124e6576124e5612e72565b5b60006124f484828501612288565b91505092915050565b60006020828403121561251357612512612e72565b5b6000612521848285016122cb565b91505092915050565b61253381612c30565b82525050565b61254281612c42565b82525050565b600061255382612b63565b61255d8185612b79565b935061256d818560208601612cb3565b61257681612e77565b840191505092915050565b600061258c82612b6e565b6125968185612b8a565b93506125a6818560208601612cb3565b6125af81612e77565b840191505092915050565b60006125c582612b6e565b6125cf8185612b9b565b93506125df818560208601612cb3565b80840191505092915050565b60006125f8602d83612b8a565b915061260382612e88565b604082019050919050565b600061261b602b83612b8a565b915061262682612ed7565b604082019050919050565b600061263e603283612b8a565b915061264982612f26565b604082019050919050565b6000612661602583612b8a565b915061266c82612f75565b604082019050919050565b6000612684601c83612b8a565b915061268f82612fc4565b602082019050919050565b60006126a7602483612b8a565b91506126b282612fed565b604082019050919050565b60006126ca601983612b8a565b91506126d58261303c565b602082019050919050565b60006126ed602983612b8a565b91506126f882613065565b604082019050919050565b6000612710602083612b8a565b915061271b826130b4565b602082019050919050565b6000612733600983612b8a565b915061273e826130dd565b602082019050919050565b6000612756601883612b8a565b915061276182613106565b602082019050919050565b6000612779602183612b8a565b91506127848261312f565b604082019050919050565b600061279c603d83612b8a565b91506127a78261317e565b604082019050919050565b60006127bf602c83612b8a565b91506127ca826131cd565b604082019050919050565b60006127e2603583612b8a565b91506127ed8261321c565b604082019050919050565b6000612805600d83612b8a565b91506128108261326b565b602082019050919050565b61282481612c9a565b82525050565b600061283682856125ba565b915061284282846125ba565b91508190509392505050565b6000602082019050612863600083018461252a565b92915050565b600060808201905061287e600083018761252a565b61288b602083018661252a565b612898604083018561281b565b81810360608301526128aa8184612548565b905095945050505050565b60006020820190506128ca6000830184612539565b92915050565b600060208201905081810360008301526128ea8184612581565b905092915050565b6000602082019050818103600083015261290b816125eb565b9050919050565b6000602082019050818103600083015261292b8161260e565b9050919050565b6000602082019050818103600083015261294b81612631565b9050919050565b6000602082019050818103600083015261296b81612654565b9050919050565b6000602082019050818103600083015261298b81612677565b9050919050565b600060208201905081810360008301526129ab8161269a565b9050919050565b600060208201905081810360008301526129cb816126bd565b9050919050565b600060208201905081810360008301526129eb816126e0565b9050919050565b60006020820190508181036000830152612a0b81612703565b9050919050565b60006020820190508181036000830152612a2b81612726565b9050919050565b60006020820190508181036000830152612a4b81612749565b9050919050565b60006020820190508181036000830152612a6b8161276c565b9050919050565b60006020820190508181036000830152612a8b8161278f565b9050919050565b60006020820190508181036000830152612aab816127b2565b9050919050565b60006020820190508181036000830152612acb816127d5565b9050919050565b60006020820190508181036000830152612aeb816127f8565b9050919050565b6000602082019050612b07600083018461281b565b92915050565b6000612b17612b28565b9050612b238282612d18565b919050565b6000604051905090565b600067ffffffffffffffff821115612b4d57612b4c612e34565b5b612b5682612e77565b9050602081019050919050565b600081519050919050565b600081519050919050565b600082825260208201905092915050565b600082825260208201905092915050565b600081905092915050565b6000612bb182612c9a565b9150612bbc83612c9a565b9250827fffffffffffffffffffffffffffffffffffffffffffffffffffffffffffffffff03821115612bf157612bf0612d49565b5b828201905092915050565b6000612c0782612c9a565b9150612c1283612c9a565b925082821015612c2557612c24612d49565b5b828203905092915050565b6000612c3b82612c7a565b9050919050565b60008115159050919050565b60007fffffffff0000000000000000000000000000000000000000000000000000000082169050919050565b600073ffffffffffffffffffffffffffffffffffffffff82169050919050565b6000819050919050565b82818337600083830152505050565b60005b83811015612cd1578082015181840152602081019050612cb6565b83811115612ce0576000848401525b50505050565b60006002820490506001821680612cfe57607f821691505b60208210811415612d1257612d11612da7565b5b50919050565b612d2182612e77565b810181811067ffffffffffffffff82111715612d4057612d3f612e34565b5b80604052505050565b7f4e487b7100000000000000000000000000000000000000000000000000000000600052601160045260246000fd5b7f4e487b7100000000000000000000000000000000000000000000000000000000600052601260045260246000fd5b7f4e487b7100000000000000000000000000000000000000000000000000000000600052602260045260246000fd5b7f4e487b7100000000000000000000000000000000000000000000000000000000600052603160045260246000fd5b7f4e487b7100000000000000000000000000000000000000000000000000000000600052603260045260246000fd5b7f4e487b7100000000000000000000000000000000000000000000000000000000600052604160045260246000fd5b600080fd5b600080fd5b600080fd5b600080fd5b6000601f19601f8301169050919050565b7f4552433732313a2063616c6c6572206973206e6f7420746f6b656e206f776e6560008201527f72206f7220617070726f76656400000000000000000000000000000000000000602082015250565b7f455243373231456e756d657261626c653a206f776e657220696e646578206f7560008201527f74206f6620626f756e6473000000000000000000000000000000000000000000602082015250565b7f4552433732313a207472616e7366657220746f206e6f6e20455243373231526560008201527f63656976657220696d706c656d656e7465720000000000000000000000000000602082015250565b7f4552433732313a207472616e736665722066726f6d20696e636f72726563742060008201527f6f776e6572000000000000000000000000000000000000000000000000000000602082015250565b7f4552433732313a20746f6b656e20616c7265616479206d696e74656400000000600082015250565b7f4552433732313a207472616e7366657220746f20746865207a65726f2061646460008201527f7265737300000000000000000000000000000000000000000000000000000000602082015250565b7f4552433732313a20617070726f766520746f2063616c6c657200000000000000600082015250565b7f4552433732313a2061646472657373207a65726f206973206e6f74206120766160008201527f6c6964206f776e65720000000000000000000000000000000000000000000000602082015250565b7f4552433732313a206d696e7420746f20746865207a65726f2061646472657373600082015250565b7f43414e545f4d494e540000000000000000000000000000000000000000000000600082015250565b7f4552433732313a20696e76616c696420746f6b656e2049440000000000000000600082015250565b7f4552433732313a20617070726f76616c20746f2063757272656e74206f776e6560008201527f7200000000000000000000000000000000000000000000000000000000000000602082015250565b7f4552433732313a20617070726f76652063616c6c6572206973206e6f7420746f60008201527f6b656e206f776e6572206f7220617070726f76656420666f7220616c6c000000602082015250565b7f455243373231456e756d657261626c653a20676c6f62616c20696e646578206f60008201527f7574206f6620626f756e64730000000000000000000000000000000000000000602082015250565b7f455243373231456e756d657261626c653a20636f6e736563757469766520747260008201527f616e7366657273206e6f7420737570706f727465640000000000000000000000602082015250565b7f494e56414c49445f56414c554500000000000000000000000000000000000000600082015250565b61329d81612c30565b81146132a857600080fd5b50565b6132b481612c42565b81146132bf57600080fd5b50565b6132cb81612c4e565b81146132d657600080fd5b50565b6132e281612c9a565b81146132ed57600080fd5b5056fea26469706673582212200d95960a397e2c273b7b2dcb8fecddf6c60b5a77977353ad768e4e44bdad88b164736f6c63430008070033",
  "linkReferences": {},
  "deployedLinkReferences": {}
}