{
  "_format": "hh-sol-artifact-1",
  "contractName": "ConfidentialHash",
  "sourceName": "contracts/confidentialhash.sol",
  "abi": [
    {
      "inputs": [],
      "stateMutability": "nonpayable",
      "type": "constructor"
    },
    {
      "inputs": [],
      "name": "ALICE_DATA",
      "outputs": [
        {
          "internalType": "bytes32",
          "name": "",
          "type": "bytes32"
        }
      ],
      "stateMutability": "view",
      "type": "function"
    },
    {
      "inputs": [],
      "name": "BOB_DATA",
      "outputs": [
        {
          "internalType": "bytes32",
          "name": "",
          "type": "bytes32"
        }
      ],
      "stateMutability": "view",
      "type": "function"
    },
    {
      "inputs": [],
      "name": "alice_age",
      "outputs": [
        {
          "internalType": "uint256",
          "name": "",
          "type": "uint256"
        }
      ],
      "stateMutability": "view",
      "type": "function"
    },
    {
      "inputs": [],
      "name": "bob_age",
      "outputs": [
        {
          "internalType": "uint256",
          "name": "",
          "type": "uint256"
        }
      ],
      "stateMutability": "view",
      "type": "function"
    },
    {
      "inputs": [
        {
          "internalType": "bytes32",
          "name": "_hash",
          "type": "bytes32"
        }
      ],
      "name": "checkthehash",
      "outputs": [
        {
          "internalType": "bool",
          "name": "",
          "type": "bool"
        }
      ],
      "stateMutability": "view",
      "type": "function"
    },
    {
      "inputs": [],
      "name": "firstUser",
      "outputs": [
        {
          "internalType": "string",
          "name": "",
          "type": "string"
        }
      ],
      "stateMutability": "view",
      "type": "function"
    },
    {
      "inputs": [
        {
          "internalType": "bytes32",
          "name": "key1",
          "type": "bytes32"
        },
        {
          "internalType": "bytes32",
          "name": "key2",
          "type": "bytes32"
        }
      ],
      "name": "hash",
      "outputs": [
        {
          "internalType": "bytes32",
          "name": "",
          "type": "bytes32"
        }
      ],
      "stateMutability": "pure",
      "type": "function"
    },
    {
      "inputs": [],
      "name": "secondUser",
      "outputs": [
        {
          "internalType": "string",
          "name": "",
          "type": "string"
        }
      ],
      "stateMutability": "view",
      "type": "function"
    }
  ],
  "bytecode": "0x60806040526040518060400160405280600581526020017f414c4943450000000000000000000000000000000000000000000000000000008152506000908051906020019061004f929190610161565b5060186001557f515778705932554b00000000000000000000000000000000000000000000000060035561008d60025460035461012e60201b60201c565b6004556040518060400160405280600381526020017f424f420000000000000000000000000000000000000000000000000000000000815250600590805190602001906100db929190610161565b5060156006557f516d39694367000000000000000000000000000000000000000000000000000060085561011960075460085461012e60201b60201c565b60095534801561012857600080fd5b506102bc565b6000828260405160200161014392919061021b565b60405160208183030381529060405280519060200120905092915050565b82805461016d90610251565b90600052602060002090601f01602090048101928261018f57600085556101d6565b82601f106101a857805160ff19168380011785556101d6565b828001600101855582156101d6579182015b828111156101d55782518255916020019190600101906101ba565b5b5090506101e391906101e7565b5090565b5b808211156102005760008160009055506001016101e8565b5090565b61021561021082610247565b610283565b82525050565b60006102278285610204565b6020820191506102378284610204565b6020820191508190509392505050565b6000819050919050565b6000600282049050600182168061026957607f821691505b6020821081141561027d5761027c61028d565b5b50919050565b6000819050919050565b7f4e487b7100000000000000000000000000000000000000000000000000000000600052602260045260246000fd5b610607806102cb6000396000f3fe608060405234801561001057600080fd5b50600436106100885760003560e01c8063a803c4731161005b578063a803c47314610129578063ace674eb14610147578063df7ad48614610165578063f0a16b9b1461018357610088565b806335c577081461008d578063412f9cac146100bd57806388da70ec146100ed5780638bf934411461010b575b600080fd5b6100a760048036038101906100a29190610341565b6101a1565b6040516100b49190610457565b60405180910390f35b6100d760048036038101906100d2919061036e565b6101c5565b6040516100e49190610472565b60405180910390f35b6100f56101f8565b604051610102919061048d565b60405180910390f35b610113610286565b604051610120919061048d565b60405180910390f35b610131610314565b60405161013e9190610472565b60405180910390f35b61014f61031a565b60405161015c9190610472565b60405180910390f35b61016d610320565b60405161017a91906104af565b60405180910390f35b61018b610326565b60405161019891906104af565b60405180910390f35b60006101b16004546009546101c5565b82146101bc57600080fd5b60019050919050565b600082826040516020016101da92919061042b565b60405160208183030381529060405280519060200120905092915050565b6000805461020590610539565b80601f016020809104026020016040519081016040528092919081815260200182805461023190610539565b801561027e5780601f106102535761010080835404028352916020019161027e565b820191906000526020600020905b81548152906001019060200180831161026157829003601f168201915b505050505081565b6005805461029390610539565b80601f01602080910402602001604051908101604052809291908181526020018280546102bf90610539565b801561030c5780601f106102e15761010080835404028352916020019161030c565b820191906000526020600020905b8154815290600101906020018083116102ef57829003601f168201915b505050505081565b60085481565b60035481565b60015481565b60065481565b60008135905061033b816105ba565b92915050565b600060208284031215610357576103566105a4565b5b60006103658482850161032c565b91505092915050565b60008060408385031215610385576103846105a4565b5b60006103938582860161032c565b92505060206103a48582860161032c565b9150509250929050565b6103b7816104e6565b82525050565b6103c6816104f2565b82525050565b6103dd6103d8826104f2565b61056b565b82525050565b60006103ee826104ca565b6103f881856104d5565b9350610408818560208601610506565b610411816105a9565b840191505092915050565b610425816104fc565b82525050565b600061043782856103cc565b60208201915061044782846103cc565b6020820191508190509392505050565b600060208201905061046c60008301846103ae565b92915050565b600060208201905061048760008301846103bd565b92915050565b600060208201905081810360008301526104a781846103e3565b905092915050565b60006020820190506104c4600083018461041c565b92915050565b600081519050919050565b600082825260208201905092915050565b60008115159050919050565b6000819050919050565b6000819050919050565b60005b83811015610524578082015181840152602081019050610509565b83811115610533576000848401525b50505050565b6000600282049050600182168061055157607f821691505b6020821081141561056557610564610575565b5b50919050565b6000819050919050565b7f4e487b7100000000000000000000000000000000000000000000000000000000600052602260045260246000fd5b600080fd5b6000601f19601f8301169050919050565b6105c3816104f2565b81146105ce57600080fd5b5056fea2646970667358221220e704b367bf9bf8a079354be481d5401585830f9720f413e4fbffd34d5fcac57c64736f6c63430008070033",
  "linkReferences": {},
  "deployedLinkReferences": {}
}