{
  "_format": "hh-sol-artifact-1",
  "contractName": "D31eg4t3",
  "sourceName": "contracts/d31eg4t3.sol",
  "abi": [
    {
      "inputs": [],
      "stateMutability": "nonpayable",
      "type": "constructor"
    },
    {
      "inputs": [
        {
          "internalType": "address",
          "name": "",
          "type": "address"
        }
      ],
      "name": "canYouHackMe",
      "outputs": [
        {
          "internalType": "bool",
          "name": "",
          "type": "bool"
        }
      ],
      "stateMutability": "view",
      "type": "function"
    },
    {
      "inputs": [
        {
          "internalType": "bytes",
          "name": "bites",
          "type": "bytes"
        }
      ],
      "name": "hackMe",
      "outputs": [
        {
          "internalType": "bool",
          "name": "",
          "type": "bool"
        },
        {
          "internalType": "bytes",
          "name": "",
          "type": "bytes"
        }
      ],
      "stateMutability": "nonpayable",
      "type": "function"
    },
    {
      "inputs": [],
      "name": "hacked",
      "outputs": [],
      "stateMutability": "nonpayable",
      "type": "function"
    },
    {
      "inputs": [],
      "name": "owner",
      "outputs": [
        {
          "internalType": "address",
          "name": "",
          "type": "address"
        }
      ],
      "stateMutability": "view",
      "type": "function"
    }
  ],
  "bytecode": "0x60806040526130396000556020600160006101000a81548160ff021916908360ff16021790555034801561003257600080fd5b5033600560006101000a81548173ffffffffffffffffffffffffffffffffffffffff021916908373ffffffffffffffffffffffffffffffffffffffff1602179055506105af806100836000396000f3fe608060405234801561001057600080fd5b506004361061004c5760003560e01c8063124ca3aa146100515780638da5cb5b14610082578063941de147146100a0578063f5895728146100d0575b600080fd5b61006b600480360381019061006691906102ac565b6100da565b6040516100799291906103a4565b60405180910390f35b61008a61015c565b6040516100979190610415565b60405180910390f35b6100ba60048036038101906100b5919061045c565b610182565b6040516100c79190610489565b60405180910390f35b6100d86101a2565b005b600060606000803373ffffffffffffffffffffffffffffffffffffffff1686866040516101089291906104e3565b600060405180830381855af49150503d8060008114610143576040519150601f19603f3d011682016040523d82523d6000602084013e610148565b606091505b509150915081819350935050509250929050565b600560009054906101000a900473ffffffffffffffffffffffffffffffffffffffff1681565b60066020528060005260406000206000915054906101000a900460ff1681565b60006101e3576040517f08c379a00000000000000000000000000000000000000000000000000000000081526004016101da90610559565b60405180910390fd5b6001600660003373ffffffffffffffffffffffffffffffffffffffff1673ffffffffffffffffffffffffffffffffffffffff16815260200190815260200160002060006101000a81548160ff021916908315150217905550565b600080fd5b600080fd5b600080fd5b600080fd5b600080fd5b60008083601f84011261026c5761026b610247565b5b8235905067ffffffffffffffff8111156102895761028861024c565b5b6020830191508360018202830111156102a5576102a4610251565b5b9250929050565b600080602083850312156102c3576102c261023d565b5b600083013567ffffffffffffffff8111156102e1576102e0610242565b5b6102ed85828601610256565b92509250509250929050565b60008115159050919050565b61030e816102f9565b82525050565b600081519050919050565b600082825260208201905092915050565b60005b8381101561034e578082015181840152602081019050610333565b60008484015250505050565b6000601f19601f8301169050919050565b600061037682610314565b610380818561031f565b9350610390818560208601610330565b6103998161035a565b840191505092915050565b60006040820190506103b96000830185610305565b81810360208301526103cb818461036b565b90509392505050565b600073ffffffffffffffffffffffffffffffffffffffff82169050919050565b60006103ff826103d4565b9050919050565b61040f816103f4565b82525050565b600060208201905061042a6000830184610406565b92915050565b610439816103f4565b811461044457600080fd5b50565b60008135905061045681610430565b92915050565b6000602082840312156104725761047161023d565b5b600061048084828501610447565b91505092915050565b600060208201905061049e6000830184610305565b92915050565b600081905092915050565b82818337600083830152505050565b60006104ca83856104a4565b93506104d78385846104af565b82840190509392505050565b60006104f08284866104be565b91508190509392505050565b600082825260208201905092915050565b7f4e6f742061204f776e6572000000000000000000000000000000000000000000600082015250565b6000610543600b836104fc565b915061054e8261050d565b602082019050919050565b6000602082019050818103600083015261057281610536565b905091905056fea2646970667358221220ec2c25ff508c0d377dc6617237d79637c00daccd3d318e10ab9a86fbdaa43ce864736f6c63430008110033",
  "linkReferences": {},
  "deployedLinkReferences": {}
}