{
  "_format": "hh-sol-artifact-1",
  "contractName": "RoadClosed",
  "sourceName": "contracts/RoadClosed.sol",
  "abi": [
    {
      "inputs": [],
      "stateMutability": "nonpayable",
      "type": "constructor"
    },
    {
      "inputs": [
        {
          "internalType": "address",
          "name": "addr",
          "type": "address"
        }
      ],
      "name": "addToWhitelist",
      "outputs": [],
      "stateMutability": "nonpayable",
      "type": "function"
    },
    {
      "inputs": [
        {
          "internalType": "address",
          "name": "addr",
          "type": "address"
        }
      ],
      "name": "changeOwner",
      "outputs": [],
      "stateMutability": "nonpayable",
      "type": "function"
    },
    {
      "inputs": [
        {
          "internalType": "address",
          "name": "addr",
          "type": "address"
        }
      ],
      "name": "isContract",
      "outputs": [
        {
          "internalType": "bool",
          "name": "",
          "type": "bool"
        }
      ],
      "stateMutability": "view",
      "type": "function"
    },
    {
      "inputs": [],
      "name": "isHacked",
      "outputs": [
        {
          "internalType": "bool",
          "name": "",
          "type": "bool"
        }
      ],
      "stateMutability": "view",
      "type": "function"
    },
    {
      "inputs": [],
      "name": "isOwner",
      "outputs": [
        {
          "internalType": "bool",
          "name": "",
          "type": "bool"
        }
      ],
      "stateMutability": "view",
      "type": "function"
    },
    {
      "inputs": [
        {
          "internalType": "address",
          "name": "addr",
          "type": "address"
        }
      ],
      "name": "pwn",
      "outputs": [],
      "stateMutability": "payable",
      "type": "function"
    },
    {
      "inputs": [],
      "name": "pwn",
      "outputs": [],
      "stateMutability": "payable",
      "type": "function"
    }
  ],
  "bytecode": "0x608060405234801561001057600080fd5b5033600060016101000a81548173ffffffffffffffffffffffffffffffffffffffff021916908373ffffffffffffffffffffffffffffffffffffffff160217905550610966806100616000396000f3fe6080604052600436106100705760003560e01c80638f32d59b1161004e5780638f32d59b146100f9578063a6f9dae114610124578063dd365b8b1461014d578063e43252d71461015757610070565b806302c6591d1461007557806316279055146100915780631915aea2146100ce575b600080fd5b61008f600480360381019061008a9190610652565b610180565b005b34801561009d57600080fd5b506100b860048036038101906100b39190610652565b6102e4565b6040516100c5919061073d565b60405180910390f35b3480156100da57600080fd5b506100e36102f7565b6040516100f0919061073d565b60405180910390f35b34801561010557600080fd5b5061010e61030d565b60405161011b919061073d565b60405180910390f35b34801561013057600080fd5b5061014b60048036038101906101469190610652565b610375565b005b610155610523565b005b34801561016357600080fd5b5061017e60048036038101906101799190610652565b610599565b005b610189336102e4565b156101c9576040517f08c379a00000000000000000000000000000000000000000000000000000000081526004016101c0906107d8565b60405180910390fd5b8073ffffffffffffffffffffffffffffffffffffffff163373ffffffffffffffffffffffffffffffffffffffff1614610237576040517f08c379a000000000000000000000000000000000000000000000000000000000815260040161022e906107b8565b60405180910390fd5b600060019054906101000a900473ffffffffffffffffffffffffffffffffffffffff1673ffffffffffffffffffffffffffffffffffffffff163373ffffffffffffffffffffffffffffffffffffffff16146102c7576040517f08c379a00000000000000000000000000000000000000000000000000000000081526004016102be90610778565b60405180910390fd5b60016000806101000a81548160ff02191690831515021790555050565b600080823b905060008111915050919050565b60008060009054906101000a900460ff16905090565b60008060019054906101000a900473ffffffffffffffffffffffffffffffffffffffff1673ffffffffffffffffffffffffffffffffffffffff163373ffffffffffffffffffffffffffffffffffffffff16141561036d5760019050610372565b600090505b90565b600260008273ffffffffffffffffffffffffffffffffffffffff1673ffffffffffffffffffffffffffffffffffffffff16815260200190815260200160002060009054906101000a900460ff16610401576040517f08c379a00000000000000000000000000000000000000000000000000000000081526004016103f890610798565b60405180910390fd5b8073ffffffffffffffffffffffffffffffffffffffff163373ffffffffffffffffffffffffffffffffffffffff161461046f576040517f08c379a0000000000000000000000000000000000000000000000000000000008152600401610466906107b8565b60405180910390fd5b600073ffffffffffffffffffffffffffffffffffffffff168173ffffffffffffffffffffffffffffffffffffffff1614156104df576040517f08c379a00000000000000000000000000000000000000000000000000000000081526004016104d690610758565b60405180910390fd5b80600060016101000a81548173ffffffffffffffffffffffffffffffffffffffff021916908373ffffffffffffffffffffffffffffffffffffffff16021790555050565b600160009054906101000a900473ffffffffffffffffffffffffffffffffffffffff1673ffffffffffffffffffffffffffffffffffffffff163373ffffffffffffffffffffffffffffffffffffffff161461057d57600080fd5b60016000806101000a81548160ff021916908315150217905550565b6105a2816102e4565b156105e2576040517f08c379a00000000000000000000000000000000000000000000000000000000081526004016105d9906107d8565b60405180910390fd5b6001600260008373ffffffffffffffffffffffffffffffffffffffff1673ffffffffffffffffffffffffffffffffffffffff16815260200190815260200160002060006101000a81548160ff02191690831515021790555050565b60008135905061064c81610919565b92915050565b60006020828403121561066857610667610847565b5b60006106768482850161063d565b91505092915050565b6106888161081b565b82525050565b600061069b600c836107f8565b91506106a68261084c565b602082019050919050565b60006106be600d836107f8565b91506106c982610875565b602082019050919050565b60006106e16017836107f8565b91506106ec8261089e565b602082019050919050565b6000610704601a836107f8565b915061070f826108c7565b602082019050919050565b60006107276019836107f8565b9150610732826108f0565b602082019050919050565b6000602082019050610752600083018461067f565b92915050565b600060208201905081810360008301526107718161068e565b9050919050565b60006020820190508181036000830152610791816106b1565b9050919050565b600060208201905081810360008301526107b1816106d4565b9050919050565b600060208201905081810360008301526107d1816106f7565b9050919050565b600060208201905081810360008301526107f18161071a565b9050919050565b600082825260208201905092915050565b600061081482610827565b9050919050565b60008115159050919050565b600073ffffffffffffffffffffffffffffffffffffffff82169050919050565b600080fd5b7f5a65726f20616464726573730000000000000000000000000000000000000000600082015250565b7f4d757374206265206f776e657200000000000000000000000000000000000000600082015250565b7f596f7520617265206e6f742077686974656c6973746564000000000000000000600082015250565b7f61646472657373206d757374206265206d73672e73656e646572000000000000600082015250565b7f436f6e74726163747320617265206e6f7420616c6c6f77656400000000000000600082015250565b61092281610809565b811461092d57600080fd5b5056fea2646970667358221220edeaf48653b06b51d3855d12ee0af43a71843ced44549cdaeb4268726ef6c12064736f6c63430008070033",
  "linkReferences": {},
  "deployedLinkReferences": {}
}