{
  "_format": "hh-sol-artifact-1",
  "contractName": "VIP_Bank",
  "sourceName": "contracts/vipbank.sol",
  "abi": [
    {
      "inputs": [],
      "stateMutability": "nonpayable",
      "type": "constructor"
    },
    {
      "inputs": [
        {
          "internalType": "address",
          "name": "",
          "type": "address"
        }
      ],
      "name": "VIP",
      "outputs": [
        {
          "internalType": "bool",
          "name": "",
          "type": "bool"
        }
      ],
      "stateMutability": "view",
      "type": "function"
    },
    {
      "inputs": [
        {
          "internalType": "address",
          "name": "addr",
          "type": "address"
        }
      ],
      "name": "addVIP",
      "outputs": [],
      "stateMutability": "nonpayable",
      "type": "function"
    },
    {
      "inputs": [
        {
          "internalType": "address",
          "name": "",
          "type": "address"
        }
      ],
      "name": "balances",
      "outputs": [
        {
          "internalType": "uint256",
          "name": "",
          "type": "uint256"
        }
      ],
      "stateMutability": "view",
      "type": "function"
    },
    {
      "inputs": [],
      "name": "contractBalance",
      "outputs": [
        {
          "internalType": "uint256",
          "name": "",
          "type": "uint256"
        }
      ],
      "stateMutability": "view",
      "type": "function"
    },
    {
      "inputs": [],
      "name": "deposit",
      "outputs": [],
      "stateMutability": "payable",
      "type": "function"
    },
    {
      "inputs": [],
      "name": "manager",
      "outputs": [
        {
          "internalType": "address",
          "name": "",
          "type": "address"
        }
      ],
      "stateMutability": "view",
      "type": "function"
    },
    {
      "inputs": [],
      "name": "maxETH",
      "outputs": [
        {
          "internalType": "uint256",
          "name": "",
          "type": "uint256"
        }
      ],
      "stateMutability": "view",
      "type": "function"
    },
    {
      "inputs": [
        {
          "internalType": "uint256",
          "name": "_amount",
          "type": "uint256"
        }
      ],
      "name": "withdraw",
      "outputs": [],
      "stateMutability": "nonpayable",
      "type": "function"
    }
  ],
  "bytecode": "0x60806040526706f05b59d3b2000060035534801561001c57600080fd5b50336000806101000a81548173ffffffffffffffffffffffffffffffffffffffff021916908373ffffffffffffffffffffffffffffffffffffffff160217905550610c568061006c6000396000f3fe60806040526004361061007b5760003560e01c80634f7d49511161004e5780634f7d49511461013c5780638b7afe2e14610165578063d0e30db014610190578063fd518b5e1461019a5761007b565b806302814b861461008057806327e235e3146100ab5780632e1a7d4d146100e8578063481c6a7514610111575b600080fd5b34801561008c57600080fd5b506100956101d7565b6040516100a29190610970565b60405180910390f35b3480156100b757600080fd5b506100d260048036038101906100cd91906106e9565b6101dd565b6040516100df9190610970565b60405180910390f35b3480156100f457600080fd5b5061010f600480360381019061010a9190610716565b6101f5565b005b34801561011d57600080fd5b50610126610455565b604051610133919061087a565b60405180910390f35b34801561014857600080fd5b50610163600480360381019061015e91906106e9565b610479565b005b34801561017157600080fd5b5061017a610562565b6040516101879190610970565b60405180910390f35b61019861056a565b005b3480156101a657600080fd5b506101c160048036038101906101bc91906106e9565b61069f565b6040516101ce9190610895565b60405180910390f35b60035481565b60016020528060005260406000206000915090505481565b60011515600260003373ffffffffffffffffffffffffffffffffffffffff1673ffffffffffffffffffffffffffffffffffffffff16815260200190815260200160002060009054906101000a900460ff16151514610288576040517f08c379a000000000000000000000000000000000000000000000000000000000815260040161027f90610950565b60405180910390fd5b6003544711156102cd576040517f08c379a00000000000000000000000000000000000000000000000000000000081526004016102c490610930565b60405180910390fd5b80600160003373ffffffffffffffffffffffffffffffffffffffff1673ffffffffffffffffffffffffffffffffffffffff16815260200190815260200160002054101561034f576040517f08c379a0000000000000000000000000000000000000000000000000000000008152600401610346906108b0565b60405180910390fd5b80600160003373ffffffffffffffffffffffffffffffffffffffff1673ffffffffffffffffffffffffffffffffffffffff168152602001908152602001600020600082825461039e91906109fd565b9250508190555060003373ffffffffffffffffffffffffffffffffffffffff16826040516103cb90610865565b60006040518083038185875af1925050503d8060008114610408576040519150601f19603f3d011682016040523d82523d6000602084013e61040d565b606091505b5050905080610451576040517f08c379a000000000000000000000000000000000000000000000000000000000815260040161044890610910565b60405180910390fd5b5050565b60008054906101000a900473ffffffffffffffffffffffffffffffffffffffff1681565b60008054906101000a900473ffffffffffffffffffffffffffffffffffffffff1673ffffffffffffffffffffffffffffffffffffffff163373ffffffffffffffffffffffffffffffffffffffff1614610507576040517f08c379a00000000000000000000000000000000000000000000000000000000081526004016104fe906108f0565b60405180910390fd5b6001600260008373ffffffffffffffffffffffffffffffffffffffff1673ffffffffffffffffffffffffffffffffffffffff16815260200190815260200160002060006101000a81548160ff02191690831515021790555050565b600047905090565b60011515600260003373ffffffffffffffffffffffffffffffffffffffff1673ffffffffffffffffffffffffffffffffffffffff16815260200190815260200160002060009054906101000a900460ff161515146105fd576040517f08c379a00000000000000000000000000000000000000000000000000000000081526004016105f490610950565b60405180910390fd5b66b1a2bc2ec50000341115610647576040517f08c379a000000000000000000000000000000000000000000000000000000000815260040161063e906108d0565b60405180910390fd5b34600160003373ffffffffffffffffffffffffffffffffffffffff1673ffffffffffffffffffffffffffffffffffffffff168152602001908152602001600020600082825461069691906109a7565b92505081905550565b60026020528060005260406000206000915054906101000a900460ff1681565b6000813590506106ce81610bf2565b92915050565b6000813590506106e381610c09565b92915050565b6000602082840312156106ff576106fe610aa8565b5b600061070d848285016106bf565b91505092915050565b60006020828403121561072c5761072b610aa8565b5b600061073a848285016106d4565b91505092915050565b61074c81610a31565b82525050565b61075b81610a43565b82525050565b600061076e601083610996565b915061077982610aad565b602082019050919050565b6000610791603183610996565b915061079c82610ad6565b604082019050919050565b60006107b4601383610996565b91506107bf82610b25565b602082019050919050565b60006107d7601083610996565b91506107e282610b4e565b602082019050919050565b60006107fa603183610996565b915061080582610b77565b604082019050919050565b600061081d60008361098b565b915061082882610bc6565b600082019050919050565b6000610840601c83610996565b915061084b82610bc9565b602082019050919050565b61085f81610a6f565b82525050565b600061087082610810565b9150819050919050565b600060208201905061088f6000830184610743565b92915050565b60006020820190506108aa6000830184610752565b92915050565b600060208201905081810360008301526108c981610761565b9050919050565b600060208201905081810360008301526108e981610784565b9050919050565b60006020820190508181036000830152610909816107a7565b9050919050565b60006020820190508181036000830152610929816107ca565b9050919050565b60006020820190508181036000830152610949816107ed565b9050919050565b6000602082019050818103600083015261096981610833565b9050919050565b60006020820190506109856000830184610856565b92915050565b600081905092915050565b600082825260208201905092915050565b60006109b282610a6f565b91506109bd83610a6f565b9250827fffffffffffffffffffffffffffffffffffffffffffffffffffffffffffffffff038211156109f2576109f1610a79565b5b828201905092915050565b6000610a0882610a6f565b9150610a1383610a6f565b925082821015610a2657610a25610a79565b5b828203905092915050565b6000610a3c82610a4f565b9050919050565b60008115159050919050565b600073ffffffffffffffffffffffffffffffffffffffff82169050919050565b6000819050919050565b7f4e487b7100000000000000000000000000000000000000000000000000000000600052601160045260246000fd5b600080fd5b7f4e6f7420656e6f75676820657468657200000000000000000000000000000000600082015250565b7f43616e6e6f74206465706f736974206d6f7265207468616e20302e303520455460008201527f4820706572207472616e73616374696f6e000000000000000000000000000000602082015250565b7f796f7520617265206e6f74206d616e6167657200000000000000000000000000600082015250565b7f5769746864726177204661696c65642100000000000000000000000000000000600082015250565b7f43616e6e6f74207769746864726177206d6f7265207468616e20302e3520455460008201527f4820706572207472616e73616374696f6e000000000000000000000000000000602082015250565b50565b7f796f7520617265206e6f74206f75722056495020637573746f6d657200000000600082015250565b610bfb81610a31565b8114610c0657600080fd5b50565b610c1281610a6f565b8114610c1d57600080fd5b5056fea26469706673582212202e3b3eeda44aae3cbe270ca1be1c52fcef1b0fa1ba1cc828d399bfb07d6342b764736f6c63430008070033",
  "linkReferences": {},
  "deployedLinkReferences": {}
}